:1000000075890175800F75900075A00075B0007A34
:10001000007B007C007D007E007F003080453081C9
:100020004C30825311A90ABA0A030B7A00EBC42A96
:10003000F5A0BB06E675A0007A007B000CBC0A03A5
:100040000D7C00EDC42CF5B0BD06D075B0007C0071
:100050007D000EBE0A030F7E00EFC42EF590B4247F
:10006000BA80A011BD2080B30A119580BA11BD20BD
:1000700081A90C118180C611BD20829F0E11A9801B
:10008000D27909758AC8758C52D28C308DFDC28C9C
:10009000C28DD9EF227905758AC8758C52D28C3001
:1000A0008DFDC28CC28DD9EF227912758A9A758C1A
:1000B00052D28C308DFDC28CC28DD9EF2278FAD805
:0200C000FE221E
:00000001FF
